{
  "contractName": "Adoption",
  "abi": [
    {
      "constant": true,
      "inputs": [
        {
          "internalType": "uint256",
          "name": "",
          "type": "uint256"
        }
      ],
      "name": "adopters",
      "outputs": [
        {
          "internalType": "address",
          "name": "",
          "type": "address"
        }
      ],
      "payable": false,
      "stateMutability": "view",
      "type": "function"
    },
    {
      "constant": false,
      "inputs": [
        {
          "internalType": "uint256",
          "name": "petId",
          "type": "uint256"
        }
      ],
      "name": "adopt",
      "outputs": [
        {
          "internalType": "uint256",
          "name": "",
          "type": "uint256"
        }
      ],
      "payable": false,
      "stateMutability": "nonpayable",
      "type": "function"
    },
    {
      "constant": true,
      "inputs": [],
      "name": "getAdopters",
      "outputs": [
        {
          "internalType": "address[16]",
          "name": "",
          "type": "address[16]"
        }
      ],
      "payable": false,
      "stateMutability": "view",
      "type": "function"
    },
    {
      "constant": false,
      "inputs": [
        {
          "internalType": "uint256",
          "name": "petId",
          "type": "uint256"
        },
        {
          "internalType": "address",
          "name": "_target",
          "type": "address"
        }
      ],
      "name": "transfer",
      "outputs": [],
      "payable": false,
      "stateMutability": "nonpayable",
      "type": "function"
    },
    {
      "constant": true,
      "inputs": [
        {
          "internalType": "uint256",
          "name": "petId",
          "type": "uint256"
        }
      ],
      "name": "getPetHistory",
      "outputs": [
        {
          "internalType": "address[]",
          "name": "",
          "type": "address[]"
        }
      ],
      "payable": false,
      "stateMutability": "view",
      "type": "function"
    },
    {
      "constant": true,
      "inputs": [
        {
          "internalType": "uint256",
          "name": "petId",
          "type": "uint256"
        }
      ],
      "name": "checkOwnerPet",
      "outputs": [
        {
          "internalType": "bool",
          "name": "",
          "type": "bool"
        }
      ],
      "payable": false,
      "stateMutability": "view",
      "type": "function"
    }
  ],
  "bytecode": "0x608060405234801561001057600080fd5b50610764806100206000396000f3fe608060405234801561001057600080fd5b50600436106100625760003560e01c80633de4eb171461006757806343ae80d3146100ad5780635fcde42d1461011b5780638588b2c51461019e578063b7760c8f146101e0578063c67f429b1461022e575b600080fd5b61006f610274565b6040518082601060200280838360005b8381101561009a57808201518184015260208101905061007f565b5050505090500191505060405180910390f35b6100d9600480360360208110156100c357600080fd5b81019080803590602001909291905050506102f5565b604051808273ffffffffffffffffffffffffffffffffffffffff1673ffffffffffffffffffffffffffffffffffffffff16815260200191505060405180910390f35b6101476004803603602081101561013157600080fd5b8101908080359060200190929190505050610328565b6040518080602001828103825283818151815260200191508051906020019060200280838360005b8381101561018a57808201518184015260208101905061016f565b505050509050019250505060405180910390f35b6101ca600480360360208110156101b457600080fd5b81019080803590602001909291905050506103e4565b6040518082815260200191505060405180910390f35b61022c600480360360408110156101f657600080fd5b8101908080359060200190929190803573ffffffffffffffffffffffffffffffffffffffff1690602001909291905050506104cc565b005b61025a6004803603602081101561024457600080fd5b810190808035906020019092919050505061067e565b604051808215151515815260200191505060405180910390f35b61027c61070c565b60006010806020026040519081016040528092919082601080156102eb576020028201915b8160009054906101000a900473ffffffffffffffffffffffffffffffffffffffff1673ffffffffffffffffffffffffffffffffffffffff16815260200190600101908083116102a1575b5050505050905090565b6000816010811061030257fe5b016000915054906101000a900473ffffffffffffffffffffffffffffffffffffffff1681565b60606000821015801561033c5750600f8211155b61034557600080fd5b601060008381526020019081526020016000208054806020026020016040519081016040528092919081815260200182805480156103d857602002820191906000526020600020905b8160009054906101000a900473ffffffffffffffffffffffffffffffffffffffff1673ffffffffffffffffffffffffffffffffffffffff168152602001906001019080831161038e575b50505050509050919050565b60008082101580156103f75750600f8211155b61040057600080fd5b336000836010811061040e57fe5b0160006101000a81548173ffffffffffffffffffffffffffffffffffffffff021916908373ffffffffffffffffffffffffffffffffffffffff160217905550601060008381526020019081526020016000203390806001815401808255809150509060018203906000526020600020016000909192909190916101000a81548173ffffffffffffffffffffffffffffffffffffffff021916908373ffffffffffffffffffffffffffffffffffffffff16021790555050819050919050565b600082101580156104de5750600f8211155b6104e757600080fd5b3373ffffffffffffffffffffffffffffffffffffffff166000836010811061050b57fe5b0160009054906101000a900473ffffffffffffffffffffffffffffffffffffffff1673ffffffffffffffffffffffffffffffffffffffff16146105b6576040517f08c379a00000000000000000000000000000000000000000000000000000000081526004018080602001828103825260088152602001807f636170796261726100000000000000000000000000000000000000000000000081525060200191505060405180910390fd5b80600083601081106105c457fe5b0160006101000a81548173ffffffffffffffffffffffffffffffffffffffff021916908373ffffffffffffffffffffffffffffffffffffffff160217905550601060008381526020019081526020016000208190806001815401808255809150509060018203906000526020600020016000909192909190916101000a81548173ffffffffffffffffffffffffffffffffffffffff021916908373ffffffffffffffffffffffffffffffffffffffff160217905550505050565b60008082101580156106915750600f8211155b61069a57600080fd5b3373ffffffffffffffffffffffffffffffffffffffff16600083601081106106be57fe5b0160009054906101000a900473ffffffffffffffffffffffffffffffffffffffff1673ffffffffffffffffffffffffffffffffffffffff1614610702576000610705565b60015b9050919050565b60405180610200016040528060109060208202803883398082019150509050509056fea265627a7a72315820e50d26a0804026db18c328804a550e9f4d9096f4365417ba380bbbd4659a4a2764736f6c63430005100032",
  "source": "pragma solidity ^0.5.0;\r\n\r\ncontract Adoption {\r\n  address[16] public adopters;\r\n  mapping(uint => address[]) petHistory;\r\n\r\n  // Adopting a pet\r\n  function adopt(uint petId) public returns (uint) {\r\n    require(petId >= 0 && petId <= 15);\r\n\r\n    adopters[petId] = msg.sender;\r\n    petHistory[petId].push(msg.sender);\r\n\r\n    return petId;\r\n  }\r\n\r\n  // Retrieving the adopters\r\n  function getAdopters() public view returns (address[16] memory) {\r\n    return adopters;\r\n  }\r\n\r\n  //transfer pet\r\n  function transfer(uint petId, address _target) public {\r\n    require(petId >= 0 && petId <= 15);\r\n    require(adopters[petId] == msg.sender, \"capybara\");\r\n\r\n    adopters[petId] = _target;\r\n    petHistory[petId].push(_target);\r\n  }\r\n\r\n  //get pet owners history\r\n  function getPetHistory(uint petId) public view returns (address[] memory) {\r\n    require(petId >= 0 && petId <= 15);\r\n\r\n    return petHistory[petId];\r\n  }\r\n\r\n  //check pet owner\r\n  function checkOwnerPet(uint petId) public view returns (bool) {\r\n    require(petId >= 0 && petId <= 15);\r\n    //if(adopters[petId] == msg.sender) {\r\n    //    return true;\r\n    //} else {\r\n    //    return false;\r\n    //}\r\n\r\n    return (adopters[petId] == msg.sender) ? true : false;\r\n  }\r\n}",
  "sourcePath": "D:\\GitHubRepo\\pet-shop-tutorial\\contracts\\Adoption.sol",
  "compiler": {
    "name": "solc",
    "version": "0.5.16+commit.9c3226ce.Emscripten.clang"
  },
  "schemaVersion": "3.4.7",
  "updatedAt": "2022-04-28T14:32:04.422Z",
  "networkType": "ethereum",
  "devdoc": {
    "methods": {}
  },
  "userdoc": {
    "methods": {}
  }
}